{
  "abi": [
    {
      "inputs": [
        {
          "internalType": "address",
          "name": "priceFeed",
          "type": "address"
        }
      ],
      "stateMutability": "nonpayable",
      "type": "constructor"
    },
    {
      "inputs": [],
      "name": "FundMe__NotOwner",
      "type": "error"
    },
    {
      "stateMutability": "payable",
      "type": "fallback"
    },
    {
      "inputs": [],
      "name": "MINIMUM_USD",
      "outputs": [
        {
          "internalType": "uint256",
          "name": "",
          "type": "uint256"
        }
      ],
      "stateMutability": "view",
      "type": "function"
    },
    {
      "inputs": [],
      "name": "cheaperWithdraw",
      "outputs": [],
      "stateMutability": "nonpayable",
      "type": "function"
    },
    {
      "inputs": [],
      "name": "fund",
      "outputs": [],
      "stateMutability": "payable",
      "type": "function"
    },
    {
      "inputs": [
        {
          "internalType": "address",
          "name": "fundingAddress",
          "type": "address"
        }
      ],
      "name": "getAddressToAmountFund",
      "outputs": [
        {
          "internalType": "uint256",
          "name": "",
          "type": "uint256"
        }
      ],
      "stateMutability": "view",
      "type": "function"
    },
    {
      "inputs": [
        {
          "internalType": "uint256",
          "name": "index",
          "type": "uint256"
        }
      ],
      "name": "getFunder",
      "outputs": [
        {
          "internalType": "address",
          "name": "",
          "type": "address"
        }
      ],
      "stateMutability": "view",
      "type": "function"
    },
    {
      "inputs": [],
      "name": "getOwner",
      "outputs": [
        {
          "internalType": "address",
          "name": "",
          "type": "address"
        }
      ],
      "stateMutability": "view",
      "type": "function"
    },
    {
      "inputs": [],
      "name": "getVersion",
      "outputs": [
        {
          "internalType": "uint256",
          "name": "",
          "type": "uint256"
        }
      ],
      "stateMutability": "view",
      "type": "function"
    },
    {
      "inputs": [],
      "name": "withdraw",
      "outputs": [],
      "stateMutability": "nonpayable",
      "type": "function"
    },
    {
      "stateMutability": "payable",
      "type": "receive"
    }
  ],
  "bytecode": {
    "object": "0x608060405234801561001057600080fd5b506040516108f53803806108f583398101604081905261002f91610062565b60028054336001600160a01b031991821617909155600380549091166001600160a01b0392909216919091179055610092565b60006020828403121561007457600080fd5b81516001600160a01b038116811461008b57600080fd5b9392505050565b610854806100a16000396000f3fe60806040526004361061007f5760003560e01c8063b60d42881161004e578063b60d42881461008e578063bd83818414610121578063be2693f014610157578063d7b4750c1461016c5761008e565b80630d8e6e2c146100965780633ccfd60b146100be5780636b69a592146100d3578063893d20e8146100ef5761008e565b3661008e5761008c61018c565b005b61008c61018c565b3480156100a257600080fd5b506100ab610267565b6040519081526020015b60405180910390f35b3480156100ca57600080fd5b5061008c6102da565b3480156100df57600080fd5b506100ab674563918244f4000081565b3480156100fb57600080fd5b506002546001600160a01b03165b6040516001600160a01b0390911681526020016100b5565b34801561012d57600080fd5b506100ab61013c366004610693565b6001600160a01b031660009081526020819052604090205490565b34801561016357600080fd5b5061008c610403565b34801561017857600080fd5b506101096101873660046106bc565b61052e565b600354674563918244f40000906101ad9034906001600160a01b031661055e565b10156102005760405162461bcd60e51b815260206004820152601b60248201527f596f75206e65656420746f207370656e64206d6f72652045544821000000000060448201526064015b60405180910390fd5b336000908152602081905260408120805434929061021f9084906106eb565b90915550506001805480820182556000919091527fb10e2d527612073b26eecdfd717e6a320cf44b4afac2b0732d9fcbe2b7fa0cf60180546001600160a01b03191633179055565b6003546040805163054fd4d560e41b815290516000926001600160a01b0316916354fd4d509160048083019260209291908290030181865afa1580156102b1573d6000803e3d6000fd5b505050506040513d601f19601f820116820180604052508101906102d591906106fe565b905090565b6002546001600160a01b031633146103055760405163579610db60e01b815260040160405180910390fd5b60005b60015481101561035b5760006001828154811061032757610327610717565b60009182526020808320909101546001600160a01b03168252819052604081205550806103538161072d565b915050610308565b50604080516000815260208101918290525161037991600191610619565b50604051600090339047908381818185875af1925050503d80600081146103bc576040519150601f19603f3d011682016040523d82523d6000602084013e6103c1565b606091505b50509050806104005760405162461bcd60e51b815260206004820152600b60248201526a10d85b1b0819985a5b195960aa1b60448201526064016101f7565b50565b6002546001600160a01b0316331461042e5760405163579610db60e01b815260040160405180910390fd5b60015460005b818110156104855760006001828154811061045157610451610717565b60009182526020808320909101546001600160a01b031682528190526040812055508061047d8161072d565b915050610434565b5060408051600081526020810191829052516104a391600191610619565b50604051600090339047908381818185875af1925050503d80600081146104e6576040519150601f19603f3d011682016040523d82523d6000602084013e6104eb565b606091505b505090508061052a5760405162461bcd60e51b815260206004820152600b60248201526a10d85b1b0819985a5b195960aa1b60448201526064016101f7565b5050565b60006001828154811061054357610543610717565b6000918252602090912001546001600160a01b031692915050565b60008061056a83610596565b90506000670de0b6b3a76400006105818684610746565b61058b919061075d565b925050505b92915050565b600080826001600160a01b031663feaf968c6040518163ffffffff1660e01b815260040160a060405180830381865afa1580156105d7573d6000803e3d6000fd5b505050506040513d601f19601f820116820180604052508101906105fb919061079e565b505050915050806402540be40061061291906107ee565b9392505050565b82805482825590600052602060002090810192821561066e579160200282015b8281111561066e57825182546001600160a01b0319166001600160a01b03909116178255602090920191600190910190610639565b5061067a92915061067e565b5090565b5b8082111561067a576000815560010161067f565b6000602082840312156106a557600080fd5b81356001600160a01b038116811461061257600080fd5b6000602082840312156106ce57600080fd5b5035919050565b634e487b7160e01b600052601160045260246000fd5b80820180821115610590576105906106d5565b60006020828403121561071057600080fd5b5051919050565b634e487b7160e01b600052603260045260246000fd5b60006001820161073f5761073f6106d5565b5060010190565b8082028115828204841417610590576105906106d5565b60008261077a57634e487b7160e01b600052601260045260246000fd5b500490565b805169ffffffffffffffffffff8116811461079957600080fd5b919050565b600080600080600060a086880312156107b657600080fd5b6107bf8661077f565b94506020860151935060408601519250606086015191506107e26080870161077f565b90509295509295909350565b80820260008212600160ff1b8414161561080a5761080a6106d5565b8181058314821517610590576105906106d556fea264697066735822122027c55be35bac270dca26b211a4dfb44871582aef1c5eff6c76f3af41616e2d8d64736f6c63430008130033",
    "linkReferences": {}
  },
  "methodIdentifiers": {
    "MINIMUM_USD()": "6b69a592",
    "cheaperWithdraw()": "be2693f0",
    "fund()": "b60d4288",
    "getAddressToAmountFund(address)": "bd838184",
    "getFunder(uint256)": "d7b4750c",
    "getOwner()": "893d20e8",
    "getVersion()": "0d8e6e2c",
    "withdraw()": "3ccfd60b"
  },
  "id": 24
}