{
  "abi": [
    {
      "inputs": [
        {
          "internalType": "address",
          "name": "priceFeed",
          "type": "address"
        }
      ],
      "stateMutability": "nonpayable",
      "type": "constructor"
    },
    {
      "inputs": [],
      "name": "FundMe__NotOwner",
      "type": "error"
    },
    {
      "stateMutability": "payable",
      "type": "fallback"
    },
    {
      "inputs": [],
      "name": "MINIMUM_USD",
      "outputs": [
        {
          "internalType": "uint256",
          "name": "",
          "type": "uint256"
        }
      ],
      "stateMutability": "view",
      "type": "function"
    },
    {
      "inputs": [],
      "name": "fund",
      "outputs": [],
      "stateMutability": "payable",
      "type": "function"
    },
    {
      "inputs": [
        {
          "internalType": "address",
          "name": "fundingAddress",
          "type": "address"
        }
      ],
      "name": "getAddressToAmountFund",
      "outputs": [
        {
          "internalType": "uint256",
          "name": "",
          "type": "uint256"
        }
      ],
      "stateMutability": "view",
      "type": "function"
    },
    {
      "inputs": [
        {
          "internalType": "uint256",
          "name": "index",
          "type": "uint256"
        }
      ],
      "name": "getFunder",
      "outputs": [
        {
          "internalType": "address",
          "name": "",
          "type": "address"
        }
      ],
      "stateMutability": "view",
      "type": "function"
    },
    {
      "inputs": [],
      "name": "getOwner",
      "outputs": [
        {
          "internalType": "address",
          "name": "",
          "type": "address"
        }
      ],
      "stateMutability": "view",
      "type": "function"
    },
    {
      "inputs": [],
      "name": "getVersion",
      "outputs": [
        {
          "internalType": "uint256",
          "name": "",
          "type": "uint256"
        }
      ],
      "stateMutability": "view",
      "type": "function"
    },
    {
      "inputs": [],
      "name": "withdraw",
      "outputs": [],
      "stateMutability": "nonpayable",
      "type": "function"
    },
    {
      "stateMutability": "payable",
      "type": "receive"
    }
  ],
  "bytecode": {
    "object": "0x608060405234801561001057600080fd5b506040516107aa3803806107aa83398101604081905261002f91610062565b60028054336001600160a01b031991821617909155600380549091166001600160a01b0392909216919091179055610092565b60006020828403121561007457600080fd5b81516001600160a01b038116811461008b57600080fd5b9392505050565b610709806100a16000396000f3fe6080604052600436106100745760003560e01c8063893d20e81161004e578063893d20e8146100e4578063b60d428814610083578063bd83818414610116578063d7b4750c1461014c57610083565b80630d8e6e2c1461008b5780633ccfd60b146100b35780636b69a592146100c857610083565b366100835761008161016c565b005b61008161016c565b34801561009757600080fd5b506100a0610247565b6040519081526020015b60405180910390f35b3480156100bf57600080fd5b506100816102ba565b3480156100d457600080fd5b506100a0674563918244f4000081565b3480156100f057600080fd5b506002546001600160a01b03165b6040516001600160a01b0390911681526020016100aa565b34801561012257600080fd5b506100a0610131366004610548565b6001600160a01b031660009081526020819052604090205490565b34801561015857600080fd5b506100fe610167366004610571565b6103e3565b600354674563918244f400009061018d9034906001600160a01b0316610413565b10156101e05760405162461bcd60e51b815260206004820152601b60248201527f596f75206e65656420746f207370656e64206d6f72652045544821000000000060448201526064015b60405180910390fd5b33600090815260208190526040812080543492906101ff9084906105a0565b90915550506001805480820182556000919091527fb10e2d527612073b26eecdfd717e6a320cf44b4afac2b0732d9fcbe2b7fa0cf60180546001600160a01b03191633179055565b6003546040805163054fd4d560e41b815290516000926001600160a01b0316916354fd4d509160048083019260209291908290030181865afa158015610291573d6000803e3d6000fd5b505050506040513d601f19601f820116820180604052508101906102b591906105b3565b905090565b6002546001600160a01b031633146102e55760405163579610db60e01b815260040160405180910390fd5b60005b60015481101561033b57600060018281548110610307576103076105cc565b60009182526020808320909101546001600160a01b0316825281905260408120555080610333816105e2565b9150506102e8565b506040805160008152602081019182905251610359916001916104ce565b50604051600090339047908381818185875af1925050503d806000811461039c576040519150601f19603f3d011682016040523d82523d6000602084013e6103a1565b606091505b50509050806103e05760405162461bcd60e51b815260206004820152600b60248201526a10d85b1b0819985a5b195960aa1b60448201526064016101d7565b50565b6000600182815481106103f8576103f86105cc565b6000918252602090912001546001600160a01b031692915050565b60008061041f8361044b565b90506000670de0b6b3a764000061043686846105fb565b6104409190610612565b925050505b92915050565b600080826001600160a01b031663feaf968c6040518163ffffffff1660e01b815260040160a060405180830381865afa15801561048c573d6000803e3d6000fd5b505050506040513d601f19601f820116820180604052508101906104b09190610653565b505050915050806402540be4006104c791906106a3565b9392505050565b828054828255906000526020600020908101928215610523579160200282015b8281111561052357825182546001600160a01b0319166001600160a01b039091161782556020909201916001909101906104ee565b5061052f929150610533565b5090565b5b8082111561052f5760008155600101610534565b60006020828403121561055a57600080fd5b81356001600160a01b03811681146104c757600080fd5b60006020828403121561058357600080fd5b5035919050565b634e487b7160e01b600052601160045260246000fd5b808201808211156104455761044561058a565b6000602082840312156105c557600080fd5b5051919050565b634e487b7160e01b600052603260045260246000fd5b6000600182016105f4576105f461058a565b5060010190565b80820281158282048414176104455761044561058a565b60008261062f57634e487b7160e01b600052601260045260246000fd5b500490565b805169ffffffffffffffffffff8116811461064e57600080fd5b919050565b600080600080600060a0868803121561066b57600080fd5b61067486610634565b945060208601519350604086015192506060860151915061069760808701610634565b90509295509295909350565b80820260008212600160ff1b841416156106bf576106bf61058a565b81810583148215176104455761044561058a56fea2646970667358221220224a44c022af5873f44db3fb90f2529f6bae3a954b66a435d3aa7857b093cd7f64736f6c63430008130033",
    "linkReferences": {}
  },
  "methodIdentifiers": {
    "MINIMUM_USD()": "6b69a592",
    "fund()": "b60d4288",
    "getAddressToAmountFund(address)": "bd838184",
    "getFunder(uint256)": "d7b4750c",
    "getOwner()": "893d20e8",
    "getVersion()": "0d8e6e2c",
    "withdraw()": "3ccfd60b"
  },
  "id": 22
}